:100000000C942A000C943C000C943C000C94D001FD
:100010000C943C000C943C000C943C000C943C0070
:100020000C943C000C943C000C943C000C94290271
:100030000C943C000C943C000C943C000C943C0050
:100040000C943C000C943C000C943C000C943C0040
:100050000C943C0011241FBECFE5D8E0DEBFCDBF1D
:1000600020E0A0E6B0E001C01D92A738B207E1F79A
:100070000E94CA000C941E030C94000065E081E00D
:100080000E94C700089566E081E00E94C7000895BD
:100090000E9414030E94110308950E94C90165E0A3
:1000A00081E00E94C30066E081E00E94C3000E94DC
:1000B000990088E490E00E94C401089542E850E06D
:1000C00064E082E00E94A40080918200813021F4EB
:1000D0000E941B0310928200089520E04DE450E03E
:1000E00060E070E080E00E945A02813009F521E072
:1000F0004EE550E061E070E00E945A028130C1F4A8
:1001000021E04EE350E06CE271E082E00E945A028E
:10011000813071F421E043E450E064EF71E083E06A
:100120000E945A02813021F40E9414030E9411039C
:10013000089540E062E081E00E94CD0040E064E08C
:1001400082E00E94CD0008950F931F93CF93DF9319
:100150001F92CDB7DEB78A011982AE014F5F5F4FA4
:100160000E944C01811105C08981F801808381E0E2
:1001700004C08981F801808380E00F90DF91CF91E6
:100180001F910F91089541E00E94CD0008950E94B3
:100190008A0108950E946D00FFCF442319F0413079
:1001A000E9F174C0813099F028F08230E9F08330B1
:1001B00041F16EC02AB381E090E002C0880F991F20
:1001C0006A95E2F7809582238ABB80E0089527B381
:1001D00081E090E002C0880F991F6A95E2F7809550
:1001E000822387BB80E0089524B381E090E002C0C1
:1001F000880F991F6A95E2F78095822384BB80E07F
:10020000089521B381E090E002C0880F991F6A959C
:10021000E2F78095822381BB80E00895813091F0E0
:1002200028F08230D9F0833029F134C02AB381E03C
:1002300090E002C0880F991F6A95E2F7822B8ABB73
:1002400080E0089527B381E090E002C0880F991FF5
:100250006A95E2F7822B87BB80E0089524B381E0A2
:1002600090E002C0880F991F6A95E2F7822B84BB49
:1002700080E0089521B381E090E002C0880F991FCB
:100280006A95E2F7822B81BB80E0089581E00895B2
:1002900081E0089581E00895813099F028F082305E
:1002A000E9F0833041F134C089B390E002C0959504
:1002B00087956A95E2F7817089BBFA01808380E0B7
:1002C000089586B390E002C0959587956A95E2F708
:1002D000817086BBFA01808380E0089583B390E04B
:1002E00002C0959587956A95E2F7817083BBFA0104
:1002F000808380E0089580B390E002C09595879553
:100300006A95E2F7817080BBFA01808380E00895EE
:1003100081E00895813091F028F08230D9F0833067
:1003200029F130C02BB381E090E002C0880F991F03
:100330006A95E2F782278BBB80E0089528B381E0BD
:1003400090E002C0880F991F6A95E2F7822788BB68
:1003500080E0089525B381E090E002C0880F991FE6
:100360006A95E2F7822785BB80E0089522B381E099
:1003700090E002C0880F991F6A95E2F7822782BB3E
:1003800080E0089581E00895909384008093830035
:1003900008958BB780628BBF84B7806484BF089553
:1003A0001F920F920FB60F9211242F933F934F93EA
:1003B0005F936F937F938F939F93AF93BF93EF93CD
:1003C000FF93E0918300F09184000995FF91EF91F4
:1003D000BF91AF919F918F917F916F915F914F915D
:1003E0003F912F910F900FBE0F901F90189583B7DC
:1003F0008F7783BF83B78F7B83BF83B7877F83BFAD
:1004000083B78F7E83BF83B78F7D83BF8FB78068AD
:100410008FBF89B7816089BF80E0089583B781600D
:1004200083BF83B78D7F83BF83B78B7F83BF80E01C
:10043000089583B78E7F83BF83B78D7F83BF83B7D4
:100440008B7F83BF80E00895909386008093850022
:1004500008951F920F920FB60F9211242F933F937E
:100460004F935F936F937F938F939F93AF93BF93BC
:10047000EF93FF93809160008F5F809360008F31D6
:1004800039F4E0918500F0918600099510926000A2
:1004900012BEFF91EF91BF91AF919F918F917F918C
:1004A0006F915F914F913F912F910F900FBE0F90E1
:1004B0001F901895A82FB0E0FD01EE0FFF1FEE0F63
:1004C000FF1FEE0FFF1FEF59FF4F0380F481E02D58
:1004D000EF2BE1F48430E0F4AA0FBB1FAA0FBB1F7F
:1004E000AA0FBB1FAF59BF4F8C9312967C936E938C
:1004F000119714965C934E93139715962C9315971A
:1005000017961C921E92169781E0089580E0089538
:1005100080E0089590E0FC01EE0FFF1FEE0FFF1F3B
:10052000EE0FFF1FEF59FF4F20812530D0F4FC0163
:10053000EE0FFF1FEE0FFF1FEE0FFF1FEF59FF4FD4
:1005400023813481232B79F0880F991F880F991FFD
:10055000880F991FFC01EF59FF4F1482138281E02D
:10056000089580E0089580E00895CF93C0E054C0DE
:100570008C2F90E0FC01EE0FFF1FEE0FFF1FEE0F20
:10058000FF1FEF59FF4F0380F481E02D309709F4EE
:1005900042C0DC01AA0FBB1FAA0FBB1FAA0FBB1FC3
:1005A000AF59BF4F16962D913C91179721153105E4
:1005B00029F5DC01AA0FBB1FAA0FBB1FAA0FBB1F87
:1005C000AF59BF4F15962C91211105C009958C2F5D
:1005D0000E948A0220C0880F991F880F991F880FD8
:1005E000991FFC01EF59FF4F8181928101979783F9
:1005F00086830380F481E02D09950DC0880F991F33
:10060000880F991F880F991FFC01EF59FF4F215048
:10061000310937832683CF5FC43008F4A9CFCF9147
:1006200008950E940E02089585EB92E00E94240234
:100630000E94F70108950E9419020895F894FFCFCF
:00000001FF
